{
  "contractName": "Cert",
  "abi": [
    {
      "inputs": [],
      "stateMutability": "nonpayable",
      "type": "constructor"
    },
    {
      "inputs": [
        {
          "internalType": "string",
          "name": "",
          "type": "string"
        }
      ],
      "name": "Certificates",
      "outputs": [
        {
          "internalType": "string",
          "name": "course",
          "type": "string"
        },
        {
          "internalType": "string",
          "name": "name",
          "type": "string"
        },
        {
          "internalType": "string",
          "name": "grade",
          "type": "string"
        },
        {
          "internalType": "string",
          "name": "date",
          "type": "string"
        },
        {
          "internalType": "bytes",
          "name": "document",
          "type": "bytes"
        }
      ],
      "stateMutability": "view",
      "type": "function",
      "constant": true
    },
    {
      "inputs": [
        {
          "internalType": "string",
          "name": "_id",
          "type": "string"
        },
        {
          "internalType": "string",
          "name": "_course",
          "type": "string"
        },
        {
          "internalType": "string",
          "name": "_name",
          "type": "string"
        },
        {
          "internalType": "string",
          "name": "_grade",
          "type": "string"
        },
        {
          "internalType": "string",
          "name": "_date",
          "type": "string"
        },
        {
          "internalType": "bytes",
          "name": "_document",
          "type": "bytes"
        }
      ],
      "name": "issue",
      "outputs": [],
      "stateMutability": "nonpayable",
      "type": "function"
    }
  ],
  "bytecode": "0x608060405234801561001057600080fd5b50336000806101000a81548173ffffffffffffffffffffffffffffffffffffffff021916908373ffffffffffffffffffffffffffffffffffffffff160217905550610e98806100606000396000f3fe608060405234801561001057600080fd5b50600436106100365760003560e01c80639d3becb21461003b578063acf420bf1461006f575b600080fd5b61005560048036038101906100509190610625565b61008b565b604051610066959493929190610742565b60405180910390f35b61008960048036038101906100849190610859565b61037f565b005b6001818051602081018201805184825260208301602085012081835280955050505050506000915090508060000180546100c4906109bd565b80601f01602080910402602001604051908101604052809291908181526020018280546100f0906109bd565b801561013d5780601f106101125761010080835404028352916020019161013d565b820191906000526020600020905b81548152906001019060200180831161012057829003601f168201915b505050505090806001018054610152906109bd565b80601f016020809104026020016040519081016040528092919081815260200182805461017e906109bd565b80156101cb5780601f106101a0576101008083540402835291602001916101cb565b820191906000526020600020905b8154815290600101906020018083116101ae57829003601f168201915b5050505050908060020180546101e0906109bd565b80601f016020809104026020016040519081016040528092919081815260200182805461020c906109bd565b80156102595780601f1061022e57610100808354040283529160200191610259565b820191906000526020600020905b81548152906001019060200180831161023c57829003601f168201915b50505050509080600301805461026e906109bd565b80601f016020809104026020016040519081016040528092919081815260200182805461029a906109bd565b80156102e75780601f106102bc576101008083540402835291602001916102e7565b820191906000526020600020905b8154815290600101906020018083116102ca57829003601f168201915b5050505050908060040180546102fc906109bd565b80601f0160208091040260200160405190810160405280929190818152602001828054610328906109bd565b80156103755780601f1061034a57610100808354040283529160200191610375565b820191906000526020600020905b81548152906001019060200180831161035857829003601f168201915b5050505050905085565b60008054906101000a900473ffffffffffffffffffffffffffffffffffffffff1673ffffffffffffffffffffffffffffffffffffffff163373ffffffffffffffffffffffffffffffffffffffff161461040d576040517f08c379a000000000000000000000000000000000000000000000000000000000815260040161040490610a3a565b60405180910390fd5b6040518060a00160405280868152602001858152602001848152602001838152602001828152506001876040516104449190610a96565b908152602001604051809103902060008201518160000190816104679190610c63565b50602082015181600101908161047d9190610c63565b5060408201518160020190816104939190610c63565b5060608201518160030190816104a99190610c63565b5060808201518160040190816104bf9190610d90565b50905050505050505050565b6000604051905090565b600080fd5b600080fd5b600080fd5b600080fd5b6000601f19601f8301169050919050565b7f4e487b7100000000000000000000000000000000000000000000000000000000600052604160045260246000fd5b610532826104e9565b810181811067ffffffffffffffff82111715610551576105506104fa565b5b80604052505050565b60006105646104cb565b90506105708282610529565b919050565b600067ffffffffffffffff8211156105905761058f6104fa565b5b610599826104e9565b9050602081019050919050565b82818337600083830152505050565b60006105c86105c384610575565b61055a565b9050828152602081018484840111156105e4576105e36104e4565b5b6105ef8482856105a6565b509392505050565b600082601f83011261060c5761060b6104df565b5b813561061c8482602086016105b5565b91505092915050565b60006020828403121561063b5761063a6104d5565b5b600082013567ffffffffffffffff811115610659576106586104da565b5b610665848285016105f7565b91505092915050565b600081519050919050565b600082825260208201905092915050565b60005b838110156106a857808201518184015260208101905061068d565b60008484015250505050565b60006106bf8261066e565b6106c98185610679565b93506106d981856020860161068a565b6106e2816104e9565b840191505092915050565b600081519050919050565b600082825260208201905092915050565b6000610714826106ed565b61071e81856106f8565b935061072e81856020860161068a565b610737816104e9565b840191505092915050565b600060a082019050818103600083015261075c81886106b4565b9050818103602083015261077081876106b4565b9050818103604083015261078481866106b4565b9050818103606083015261079881856106b4565b905081810360808301526107ac8184610709565b90509695505050505050565b600067ffffffffffffffff8211156107d3576107d26104fa565b5b6107dc826104e9565b9050602081019050919050565b60006107fc6107f7846107b8565b61055a565b905082815260208101848484011115610818576108176104e4565b5b6108238482856105a6565b509392505050565b600082601f8301126108405761083f6104df565b5b81356108508482602086016107e9565b91505092915050565b60008060008060008060c08789031215610876576108756104d5565b5b600087013567ffffffffffffffff811115610894576108936104da565b5b6108a089828a016105f7565b965050602087013567ffffffffffffffff8111156108c1576108c06104da565b5b6108cd89828a016105f7565b955050604087013567ffffffffffffffff8111156108ee576108ed6104da565b5b6108fa89828a016105f7565b945050606087013567ffffffffffffffff81111561091b5761091a6104da565b5b61092789828a016105f7565b935050608087013567ffffffffffffffff811115610948576109476104da565b5b61095489828a016105f7565b92505060a087013567ffffffffffffffff811115610975576109746104da565b5b61098189828a0161082b565b9150509295509295509295565b7f4e487b7100000000000000000000000000000000000000000000000000000000600052602260045260246000fd5b600060028204905060018216806109d557607f821691505b6020821081036109e8576109e761098e565b5b50919050565b7f4163636573732044656e69656400000000000000000000000000000000000000600082015250565b6000610a24600d83610679565b9150610a2f826109ee565b602082019050919050565b60006020820190508181036000830152610a5381610a17565b9050919050565b600081905092915050565b6000610a708261066e565b610a7a8185610a5a565b9350610a8a81856020860161068a565b80840191505092915050565b6000610aa28284610a65565b915081905092915050565b60008190508160005260206000209050919050565b60006020601f8301049050919050565b600082821b905092915050565b600060088302610b0f7fffffffffffffffffffffffffffffffffffffffffffffffffffffffffffffffff82610ad2565b610b198683610ad2565b95508019841693508086168417925050509392505050565b6000819050919050565b6000819050919050565b6000610b60610b5b610b5684610b31565b610b3b565b610b31565b9050919050565b6000819050919050565b610b7a83610b45565b610b8e610b8682610b67565b848454610adf565b825550505050565b600090565b610ba3610b96565b610bae818484610b71565b505050565b5b81811015610bd257610bc7600082610b9b565b600181019050610bb4565b5050565b601f821115610c1757610be881610aad565b610bf184610ac2565b81016020851015610c00578190505b610c14610c0c85610ac2565b830182610bb3565b50505b505050565b600082821c905092915050565b6000610c3a60001984600802610c1c565b1980831691505092915050565b6000610c538383610c29565b9150826002028217905092915050565b610c6c8261066e565b67ffffffffffffffff811115610c8557610c846104fa565b5b610c8f82546109bd565b610c9a828285610bd6565b600060209050601f831160018114610ccd5760008415610cbb578287015190505b610cc58582610c47565b865550610d2d565b601f198416610cdb86610aad565b60005b82811015610d0357848901518255600182019150602085019450602081019050610cde565b86831015610d205784890151610d1c601f891682610c29565b8355505b6001600288020188555050505b505050505050565b60008190508160005260206000209050919050565b601f821115610d8b57610d5c81610d35565b610d6584610ac2565b81016020851015610d74578190505b610d88610d8085610ac2565b830182610bb3565b50505b505050565b610d99826106ed565b67ffffffffffffffff811115610db257610db16104fa565b5b610dbc82546109bd565b610dc7828285610d4a565b600060209050601f831160018114610dfa5760008415610de8578287015190505b610df28582610c47565b865550610e5a565b601f198416610e0886610d35565b60005b82811015610e3057848901518255600182019150602085019450602081019050610e0b565b86831015610e4d5784890151610e49601f891682610c29565b8355505b6001600288020188555050505b50505050505056fea26469706673582212209033518c26958dc84edd7764fad40fec15869f3463edb8cae3f452b71f0b915564736f6c63430008120033",
  "immutableReferences": {},
  "source": "// SPDX-License-Identifier: MIT\npragma solidity 0.8.18;\n\ncontract Cert {\n    address admin;\n\n    constructor() {\n        admin = msg.sender;\n    }\n\n    modifier onlyAdmin() {\n        require(msg.sender == admin, \"Access Denied\");\n        _;\n    }\n\n    struct Certificate {\n        string course;\n        string name;\n        string grade;\n        string date;\n        bytes document;\n    }\n\n    mapping(string => Certificate) public Certificates;\n\n    function issue(\n        string memory _id,\n        string memory _course,\n        string memory _name,\n        string memory _grade,\n        string memory _date,\n        bytes memory _document\n    ) public onlyAdmin {\n        Certificates[_id] = Certificate(_course, _name, _grade, _date, _document);\n    }\n}\n",
  "sourcePath": "/home/thedemystifier/Desktop/workspace/Express-Certificate-Dapp-Infura/truffle/contracts/Cert.sol",
  "compiler": {
    "name": "solc",
    "version": "0.8.18+commit.87f61d96.Emscripten.clang"
  },
  "schemaVersion": "3.4.7",
  "updatedAt": "2023-02-22T10:52:15.609Z",
  "networkType": "ethereum",
  "devdoc": {
    "kind": "dev",
    "methods": {},
    "version": 1
  },
  "userdoc": {
    "kind": "user",
    "methods": {},
    "version": 1
  }
}